{
  "contractName": "AeroplaneChess",
  "abi": [
    {
      "inputs": [],
      "payable": false,
      "stateMutability": "nonpayable",
      "type": "constructor"
    },
    {
      "constant": true,
      "inputs": [
        {
          "internalType": "uint256",
          "name": "",
          "type": "uint256"
        }
      ],
      "name": "player_list",
      "outputs": [
        {
          "internalType": "string",
          "name": "color",
          "type": "string"
        },
        {
          "internalType": "string",
          "name": "state",
          "type": "string"
        }
      ],
      "payable": false,
      "stateMutability": "view",
      "type": "function"
    },
    {
      "constant": false,
      "inputs": [
        {
          "internalType": "string",
          "name": "color",
          "type": "string"
        },
        {
          "internalType": "string",
          "name": "state",
          "type": "string"
        }
      ],
      "name": "_addNewUser",
      "outputs": [],
      "payable": false,
      "stateMutability": "nonpayable",
      "type": "function"
    }
  ],
  "bytecode": "0x608060405260405180608001604052806040518060400160405280600381526020017f726564000000000000000000000000000000000000000000000000000000000081525081526020016040518060400160405280600481526020017f626c75650000000000000000000000000000000000000000000000000000000081525081526020016040518060400160405280600681526020017f79656c6c6f77000000000000000000000000000000000000000000000000000081525081526020016040518060400160405280600581526020017f677265656e000000000000000000000000000000000000000000000000000000815250815250600190600461010992919061011c565b5034801561011657600080fd5b50610288565b826004810192821561015e579160200282015b8281111561015d57825182908051906020019061014d92919061016f565b509160200191906001019061012f565b5b50905061016b91906101ef565b5090565b828054600181600116156101000203166002900490600052602060002090601f016020900481019282601f106101b057805160ff19168380011785556101de565b828001600101855582156101de579182015b828111156101dd5782518255916020019190600101906101c2565b5b5090506101eb919061021b565b5090565b61021891905b80821115610214576000818161020b9190610240565b506001016101f5565b5090565b90565b61023d91905b80821115610239576000816000905550600101610221565b5090565b90565b50805460018160011615610100020316600290046000825580601f106102665750610285565b601f016020900490600052602060002090810190610284919061021b565b5b50565b61055e806102976000396000f3fe608060405234801561001057600080fd5b50600436106100365760003560e01c80637321f4641461003b578063e7d895ee1461014e575b600080fd5b6100676004803603602081101561005157600080fd5b81019080803590602001909291905050506102a0565b604051808060200180602001838103835285818151815260200191508051906020019080838360005b838110156100ab578082015181840152602081019050610090565b50505050905090810190601f1680156100d85780820380516001836020036101000a031916815260200191505b50838103825284818151815260200191508051906020019080838360005b838110156101115780820151818401526020810190506100f6565b50505050905090810190601f16801561013e5780820380516001836020036101000a031916815260200191505b5094505050505060405180910390f35b61029e6004803603604081101561016457600080fd5b810190808035906020019064010000000081111561018157600080fd5b82018360208201111561019357600080fd5b803590602001918460018302840111640100000000831117156101b557600080fd5b91908080601f016020809104026020016040519081016040528093929190818152602001838380828437600081840152601f19601f8201169050808301925050505050505091929192908035906020019064010000000081111561021857600080fd5b82018360208201111561022a57600080fd5b8035906020019184600183028401116401000000008311171561024c57600080fd5b91908080601f016020809104026020016040519081016040528093929190818152602001838380828437600081840152601f19601f820116905080830192505050505050509192919290505050610401565b005b600581815481106102ad57fe5b9060005260206000209060020201600091509050806000018054600181600116156101000203166002900480601f0160208091040260200160405190810160405280929190818152602001828054600181600116156101000203166002900480156103595780601f1061032e57610100808354040283529160200191610359565b820191906000526020600020905b81548152906001019060200180831161033c57829003601f168201915b505050505090806001018054600181600116156101000203166002900480601f0160208091040260200160405190810160405280929190818152602001828054600181600116156101000203166002900480156103f75780601f106103cc576101008083540402835291602001916103f7565b820191906000526020600020905b8154815290600101906020018083116103da57829003601f168201915b5050505050905082565b600560405180604001604052808481526020018381525090806001815401808255809150509060018203906000526020600020906002020160009091929091909150600082015181600001908051906020019061045f929190610484565b50602082015181600101908051906020019061047c929190610484565b505050505050565b828054600181600116156101000203166002900490600052602060002090601f016020900481019282601f106104c557805160ff19168380011785556104f3565b828001600101855582156104f3579182015b828111156104f25782518255916020019190600101906104d7565b5b5090506105009190610504565b5090565b61052691905b8082111561052257600081600090555060010161050a565b5090565b9056fea265627a7a723158209ac3a4d586a52f73ef74ba273be36df8e6fde673d19b5e685047fe2a65d333cc64736f6c63430005100032",
  "source": "pragma solidity ^0.5.16;\r\n\r\ncontract AeroplaneChess{\r\n    struct Player{\r\n        string color;\r\n        string state;\r\n    }\r\n   uint8 id;\r\n   string[4] colorList=[\"red\",\"blue\",\"yellow\",\"green\"];\r\n   \r\n   Player[] public player_list;\r\n   \r\n   constructor()public{}\r\n   \r\n   function _addNewUser(string memory color,string memory state)public{\r\n       player_list.push(Player(color,state));\r\n   }\r\n   \r\n}",
  "sourcePath": "C:\\workspace\\web-AeroplanChess\\contracts\\AreoplaneChess.sol",
  "compiler": {
    "name": "solc",
    "version": "0.5.16+commit.9c3226ce.Emscripten.clang"
  },
  "schemaVersion": "3.2.0",
  "updatedAt": "2020-06-16T10:21:32.021Z",
  "networkType": "ethereum",
  "devdoc": {
    "methods": {}
  },
  "userdoc": {
    "methods": {}
  }
}