{
  "contractName": "ConvertLib",
  "abi": [
    {
      "constant": true,
      "inputs": [
        {
          "internalType": "uint256",
          "name": "amount",
          "type": "uint256"
        },
        {
          "internalType": "uint256",
          "name": "conversionRate",
          "type": "uint256"
        }
      ],
      "name": "convert",
      "outputs": [
        {
          "internalType": "uint256",
          "name": "convertedAmount",
          "type": "uint256"
        }
      ],
      "payable": false,
      "stateMutability": "pure",
      "type": "function"
    }
  ],
  "bytecode": "0x60c3610025600b82828239805160001a60731461001857fe5b30600052607381538281f3fe730000000000000000000000000000000000000000301460806040526004361060335760003560e01c806396e4ee3d146038575b600080fd5b606b60048036036040811015604c57600080fd5b8101908080359060200190929190803590602001909291905050506081565b6040518082815260200191505060405180910390f35b600081830290509291505056fea265627a7a72315820bddc73854c1f29b8564bfb6c0b4c19ea17a807415421192bc269217fa5b66b6964736f6c63430005100032",
  "source": "pragma solidity >=0.4.21 <0.7.0;\n\nlibrary ConvertLib {\n    function convert(uint amount,uint conversionRate) public pure returns (uint convertedAmount) {\n        return amount * conversionRate;\n    }\n}\n",
  "sourcePath": "C:\\workspace\\web-AeroplanChess\\contracts\\ConvertLib.sol",
  "compiler": {
    "name": "solc",
    "version": "0.5.16+commit.9c3226ce.Emscripten.clang"
  },
  "schemaVersion": "3.2.0",
  "updatedAt": "2020-06-16T10:21:30.236Z",
  "devdoc": {
    "methods": {}
  },
  "userdoc": {
    "methods": {}
  }
}