{
  "contractName": "SimpleStorage",
  "abi": [
    {
      "inputs": [],
      "payable": false,
      "stateMutability": "nonpayable",
      "type": "constructor"
    },
    {
      "anonymous": false,
      "inputs": [
        {
          "indexed": true,
          "internalType": "address",
          "name": "previousOwner",
          "type": "address"
        },
        {
          "indexed": true,
          "internalType": "address",
          "name": "newOwner",
          "type": "address"
        }
      ],
      "name": "OwnershipTransferred",
      "type": "event"
    },
    {
      "constant": false,
      "inputs": [
        {
          "internalType": "address payable",
          "name": "newOwner",
          "type": "address"
        }
      ],
      "name": "transferOwnership",
      "outputs": [],
      "payable": false,
      "stateMutability": "nonpayable",
      "type": "function"
    },
    {
      "constant": false,
      "inputs": [
        {
          "internalType": "string",
          "name": "s",
          "type": "string"
        },
        {
          "internalType": "string",
          "name": "t",
          "type": "string"
        }
      ],
      "name": "setWord",
      "outputs": [],
      "payable": false,
      "stateMutability": "nonpayable",
      "type": "function"
    },
    {
      "constant": true,
      "inputs": [
        {
          "internalType": "uint256",
          "name": "random",
          "type": "uint256"
        }
      ],
      "name": "getRandomWord",
      "outputs": [
        {
          "internalType": "uint256",
          "name": "",
          "type": "uint256"
        },
        {
          "internalType": "string",
          "name": "",
          "type": "string"
        },
        {
          "internalType": "address",
          "name": "",
          "type": "address"
        },
        {
          "internalType": "string",
          "name": "",
          "type": "string"
        }
      ],
      "payable": false,
      "stateMutability": "view",
      "type": "function"
    },
    {
      "constant": false,
      "inputs": [
        {
          "internalType": "string",
          "name": "s",
          "type": "string"
        }
      ],
      "name": "setPicByHash",
      "outputs": [],
      "payable": false,
      "stateMutability": "nonpayable",
      "type": "function"
    },
    {
      "constant": true,
      "inputs": [
        {
          "internalType": "uint256",
          "name": "random",
          "type": "uint256"
        }
      ],
      "name": "getRandomPic",
      "outputs": [
        {
          "internalType": "uint256",
          "name": "",
          "type": "uint256"
        },
        {
          "internalType": "string",
          "name": "",
          "type": "string"
        }
      ],
      "payable": false,
      "stateMutability": "view",
      "type": "function"
    },
    {
      "constant": false,
      "inputs": [],
      "name": "sendMoney",
      "outputs": [],
      "payable": true,
      "stateMutability": "payable",
      "type": "function"
    },
    {
      "constant": true,
      "inputs": [],
      "name": "getBalance",
      "outputs": [
        {
          "internalType": "uint256",
          "name": "",
          "type": "uint256"
        }
      ],
      "payable": false,
      "stateMutability": "view",
      "type": "function"
    },
    {
      "constant": false,
      "inputs": [],
      "name": "withdraw",
      "outputs": [],
      "payable": false,
      "stateMutability": "nonpayable",
      "type": "function"
    },
    {
      "constant": true,
      "inputs": [],
      "name": "getMaxGiveMoneyTimes",
      "outputs": [
        {
          "internalType": "uint256",
          "name": "",
          "type": "uint256"
        }
      ],
      "payable": false,
      "stateMutability": "view",
      "type": "function"
    }
  ],
  "bytecode": "0x608060405234801561001057600080fd5b50600060028190555033600360006101000a81548173ffffffffffffffffffffffffffffffffffffffff021916908373ffffffffffffffffffffffffffffffffffffffff160217905550610da2806100696000396000f3fe6080604052600436106100865760003560e01c80635edc4264116100595780635edc4264146101c05780638c595a951461027b578063cbedbf5a146103da578063cc76b911146103e4578063f2fde38b1461053e57610086565b806312065fe01461008b5780633ccfd60b146100b65780634845a310146100cd57806349627eca146100f8575b600080fd5b34801561009757600080fd5b506100a061058f565b6040518082815260200191505060405180910390f35b3480156100c257600080fd5b506100cb610597565b005b3480156100d957600080fd5b506100e261065c565b6040518082815260200191505060405180910390f35b34801561010457600080fd5b506101be6004803603602081101561011b57600080fd5b810190808035906020019064010000000081111561013857600080fd5b82018360208201111561014a57600080fd5b8035906020019184600183028401116401000000008311171561016c57600080fd5b91908080601f016020809104026020016040519081016040528093929190818152602001838380828437600081840152601f19601f820116905080830192505050505050509192919290505050610666565b005b3480156101cc57600080fd5b506101f9600480360360208110156101e357600080fd5b81019080803590602001909291905050506106a8565b6040518083815260200180602001828103825283818151815260200191508051906020019080838360005b8381101561023f578082015181840152602081019050610224565b50505050905090810190601f16801561026c5780820380516001836020036101000a031916815260200191505b50935050505060405180910390f35b34801561028757600080fd5b506103d86004803603604081101561029e57600080fd5b81019080803590602001906401000000008111156102bb57600080fd5b8201836020820111156102cd57600080fd5b803590602001918460018302840111640100000000831117156102ef57600080fd5b91908080601f016020809104026020016040519081016040528093929190818152602001838380828437600081840152601f19601f8201169050808301925050505050505091929192908035906020019064010000000081111561035257600080fd5b82018360208201111561036457600080fd5b8035906020019184600183028401116401000000008311171561038657600080fd5b91908080601f016020809104026020016040519081016040528093929190818152602001838380828437600081840152601f19601f82011690508083019250505050505050919291929050505061079d565b005b6103e2610883565b005b3480156103f057600080fd5b5061041d6004803603602081101561040757600080fd5b810190808035906020019092919050505061090c565b60405180858152602001806020018473ffffffffffffffffffffffffffffffffffffffff1673ffffffffffffffffffffffffffffffffffffffff16815260200180602001838103835286818151815260200191508051906020019080838360005b8381101561049957808201518184015260208101905061047e565b50505050905090810190601f1680156104c65780820380516001836020036101000a031916815260200191505b50838103825284818151815260200191508051906020019080838360005b838110156104ff5780820151818401526020810190506104e4565b50505050905090810190601f16801561052c5780820380516001836020036101000a031916815260200191505b50965050505050505060405180910390f35b34801561054a57600080fd5b5061058d6004803603602081101561056157600080fd5b81019080803573ffffffffffffffffffffffffffffffffffffffff169060200190929190505050610af4565b005b600047905090565b600360009054906101000a900473ffffffffffffffffffffffffffffffffffffffff1673ffffffffffffffffffffffffffffffffffffffff163373ffffffffffffffffffffffffffffffffffffffff16146105f157600080fd5b600360009054906101000a900473ffffffffffffffffffffffffffffffffffffffff1673ffffffffffffffffffffffffffffffffffffffff166108fc479081150290604051600060405180830381858888f19350505050158015610659573d6000803e3d6000fd5b50565b6000600554905090565b60008190806001815401808255809150509060018203906000526020600020016000909192909190915090805190602001906106a3929190610c48565b505050565b600060606000808054905014156106d75760008090506040518060200160405280600081525091509150610798565b6060600084815481106106e657fe5b906000526020600020018054600181600116156101000203166002900480601f0160208091040260200160405190810160405280929190818152602001828054600181600116156101000203166002900480156107845780601f1061075957610100808354040283529160200191610784565b820191906000526020600020905b81548152906001019060200180831161076757829003601f168201915b505050505090506000805490508192509250505b915091565b600160405180606001604052808481526020013373ffffffffffffffffffffffffffffffffffffffff16815260200183815250908060018154018082558091505090600182039060005260206000209060030201600090919290919091506000820151816000019080519060200190610817929190610cc8565b5060208201518160010160006101000a81548173ffffffffffffffffffffffffffffffffffffffff021916908373ffffffffffffffffffffffffffffffffffffffff160217905550604082015181600201908051906020019061087b929190610cc8565b505050505050565b662386f26fc1000034101561089757600080fd5b6005543411156108a957346005819055505b600460003373ffffffffffffffffffffffffffffffffffffffff1673ffffffffffffffffffffffffffffffffffffffff16815260200190815260200160002060008154809291906001019190505550600260008154809291906001019190505550565b600060606000606060006001805490501415610959576000338191506040518060200160405280600081525090809050604051806020016040528060008152509350935093509350610aed565b60006001868154811061096857fe5b90600052602060002090600302019050600180549050816000018260010160009054906101000a900473ffffffffffffffffffffffffffffffffffffffff1683600201828054600181600116156101000203166002900480601f016020809104026020016040519081016040528092919081815260200182805460018160011615610100020316600290048015610a405780601f10610a1557610100808354040283529160200191610a40565b820191906000526020600020905b815481529060010190602001808311610a2357829003601f168201915b50505050509250808054600181600116156101000203166002900480601f016020809104026020016040519081016040528092919081815260200182805460018160011615610100020316600290048015610adc5780601f10610ab157610100808354040283529160200191610adc565b820191906000526020600020905b815481529060010190602001808311610abf57829003601f168201915b505050505090509450945094509450505b9193509193565b600360009054906101000a900473ffffffffffffffffffffffffffffffffffffffff1673ffffffffffffffffffffffffffffffffffffffff163373ffffffffffffffffffffffffffffffffffffffff1614610b4e57600080fd5b600073ffffffffffffffffffffffffffffffffffffffff168173ffffffffffffffffffffffffffffffffffffffff161415610b8857600080fd5b8073ffffffffffffffffffffffffffffffffffffffff16600360009054906101000a900473ffffffffffffffffffffffffffffffffffffffff1673ffffffffffffffffffffffffffffffffffffffff167f8be0079c531659141344cd1fd0a4f28419497f9722a3daafe3b4186f6b6457e060405160405180910390a380600360006101000a81548173ffffffffffffffffffffffffffffffffffffffff021916908373ffffffffffffffffffffffffffffffffffffffff16021790555050565b828054600181600116156101000203166002900490600052602060002090601f016020900481019282601f10610c8957805160ff1916838001178555610cb7565b82800160010185558215610cb7579182015b82811115610cb6578251825591602001919060010190610c9b565b5b509050610cc49190610d48565b5090565b828054600181600116156101000203166002900490600052602060002090601f016020900481019282601f10610d0957805160ff1916838001178555610d37565b82800160010185558215610d37579182015b82811115610d36578251825591602001919060010190610d1b565b5b509050610d449190610d48565b5090565b610d6a91905b80821115610d66576000816000905550600101610d4e565b5090565b9056fea265627a7a72315820939a19f3bf793833af03378b8b5b1d223e4d70228e61633f6b1c23d3c4a7b92264736f6c63430005100032",
  "source": "pragma solidity ^0.5.16;\n\ncontract SimpleStorage {\n\n    struct Message {\n        string word; // 留言\n        address from; // 留言者地址\n        string timestamp ; // 留言unix时间戳\n    }\n\n    string[] private picArr;\n    Message[] private wordArr;\n    uint giveMoneyPeopleNumber;\n    address payable owner;\n    \n    mapping(address=>uint) giveMoneyTimes;\n    uint currentMaxMoney;\n    \n    event OwnershipTransferred(address indexed previousOwner, address indexed newOwner);\n    \n    constructor()public{\n        giveMoneyPeopleNumber=0;\n        owner=msg.sender;\n    }\n    \n    modifier onlyOwner() {\n        require(msg.sender == owner);\n        _;\n      }\n    \n    function transferOwnership(address payable newOwner) public onlyOwner {\n        require(newOwner != address(0));\n        emit OwnershipTransferred(owner, newOwner);\n        owner = newOwner;\n      }\n    \n    \n\n\n    function setWord(string memory s, string memory t) public {\n        wordArr.push(Message({\n            word: s,\n            from: msg.sender,\n            timestamp: t\n        }));\n    }\n\n    function getRandomWord(uint random) public view returns (uint, string memory, address, string memory) {\n        if(wordArr.length==0){\n            return (0, \"\", msg.sender, \"\");\n        }else{\n            Message storage result = wordArr[random];\n            return (wordArr.length, result.word, result.from, result.timestamp);\n        }\n        \n    }\n\n    function setPicByHash(string memory s) public {\n        picArr.push(s);\n    }\n\n    function getRandomPic(uint random) public view returns (uint,string memory) {\n        if(picArr.length==0){\n            return (0,\"\");\n        }else{\n            string memory resultpipic= picArr[random];\n            return (picArr.length,resultpipic);\n        }\n    }\n    \n    \n    function sendMoney()payable public{\n        require(msg.value>=0.01 ether);\n        if(msg.value>currentMaxMoney){currentMaxMoney=msg.value;}\n        giveMoneyTimes[msg.sender]++;\n        giveMoneyPeopleNumber++;\n    }\n    \n    function getBalance() public view returns(uint){\n        return address(this).balance;\n    }\n    \n    function withdraw() external onlyOwner {\n        owner.transfer(address(this).balance);\n    }\n    \n    function getMaxGiveMoneyTimes() view public returns(uint){\n        return currentMaxMoney;\n    }\n\n}\n",
  "sourcePath": "C:\\workspace\\web-words\\contracts\\SimpleStorage.sol",
  "compiler": {
    "name": "solc",
    "version": "0.5.16+commit.9c3226ce.Emscripten.clang"
  },
  "schemaVersion": "3.2.0",
  "updatedAt": "2020-06-19T09:53:59.035Z",
  "networkType": "ethereum",
  "devdoc": {
    "methods": {}
  },
  "userdoc": {
    "methods": {}
  }
}